{
	"data": {
		"bytecode": {
			"linkReferences": {},
			"object": "6080604052336000806101000a81548173ffffffffffffffffffffffffffffffffffffffff021916908373ffffffffffffffffffffffffffffffffffffffff1602179055506105a6806100536000396000f3fe60806040526004361061003f5760003560e01c80630c4f65bd1461004457806311610c251461006f5780632e5b2168146100795780636f9fb98a146100a4575b600080fd5b34801561005057600080fd5b506100596100cf565b604051610066919061034f565b60405180910390f35b6100776100f8565b005b34801561008557600080fd5b5061008e610218565b60405161009b919061038a565b60405180910390f35b3480156100b057600080fd5b506100b961022c565b6040516100c6919061038a565b60405180910390f35b60008060009054906101000a900473ffffffffffffffffffffffffffffffffffffffff16905090565b610100610218565b341015610142576040517f08c379a00000000000000000000000000000000000000000000000000000000081526004016101399061036a565b60405180910390fd5b61014a610234565b156101de577f66b2cd474da72a7f31c5ff448adb9f09f7fe33365c0995613e6f9690b54081f13460405161017e919061038a565b60405180910390a13373ffffffffffffffffffffffffffffffffffffffff166108fc6002346101ad91906103e7565b9081150290604051600060405180830381858888f193505050501580156101d8573d6000803e3d6000fd5b50610216565b7ffcd230a1573290db028735be235dfc8d70560434138a162ba5cd6684f50358e23460405161020d919061038a565b60405180910390a15b565b6000600a4761022791906103b6565b905090565b600047905090565b600080333443425a6040516020016102509594939291906102f0565b604051602081830303815290604052805190602001209050600060028260001c61027a91906104ab565b1491505090565b61028a81610441565b82525050565b6102a161029c82610441565b61047d565b82525050565b60006102b46010836103a5565b91506102bf82610547565b602082019050919050565b6102d381610473565b82525050565b6102ea6102e582610473565b6104a1565b82525050565b60006102fc8288610290565b60148201915061030c82876102d9565b60208201915061031c82866102d9565b60208201915061032c82856102d9565b60208201915061033c82846102d9565b6020820191508190509695505050505050565b60006020820190506103646000830184610281565b92915050565b60006020820190508181036000830152610383816102a7565b9050919050565b600060208201905061039f60008301846102ca565b92915050565b600082825260208201905092915050565b60006103c182610473565b91506103cc83610473565b9250826103dc576103db61050b565b5b828204905092915050565b60006103f282610473565b91506103fd83610473565b9250817fffffffffffffffffffffffffffffffffffffffffffffffffffffffffffffffff0483118215151615610436576104356104dc565b5b828202905092915050565b600061044c82610453565b9050919050565b600073ffffffffffffffffffffffffffffffffffffffff82169050919050565b6000819050919050565b60006104888261048f565b9050919050565b600061049a8261053a565b9050919050565b6000819050919050565b60006104b682610473565b91506104c183610473565b9250826104d1576104d061050b565b5b828206905092915050565b7f4e487b7100000000000000000000000000000000000000000000000000000000600052601160045260246000fd5b7f4e487b7100000000000000000000000000000000000000000000000000000000600052601260045260246000fd5b60008160601b9050919050565b7f6265742073697a6520746f6f206269670000000000000000000000000000000060008201525056fea26469706673582212203364124a5e1b7af2a0492475c67852f5a0538850dedf21858a6f58b1a4decb2664736f6c63430008060033",
			"opcodes": "PUSH1 0x80 PUSH1 0x40 MSTORE CALLER PUSH1 0x0 DUP1 PUSH2 0x100 EXP DUP2 SLOAD DUP2 PUSH20 0xFFFFFFFFFFFFFFFFFFFFFFFFFFFFFFFFFFFFFFFF MUL NOT AND SWAP1 DUP4 PUSH20 0xFFFFFFFFFFFFFFFFFFFFFFFFFFFFFFFFFFFFFFFF AND MUL OR SWAP1 SSTORE POP PUSH2 0x5A6 DUP1 PUSH2 0x53 PUSH1 0x0 CODECOPY PUSH1 0x0 RETURN INVALID PUSH1 0x80 PUSH1 0x40 MSTORE PUSH1 0x4 CALLDATASIZE LT PUSH2 0x3F JUMPI PUSH1 0x0 CALLDATALOAD PUSH1 0xE0 SHR DUP1 PUSH4 0xC4F65BD EQ PUSH2 0x44 JUMPI DUP1 PUSH4 0x11610C25 EQ PUSH2 0x6F JUMPI DUP1 PUSH4 0x2E5B2168 EQ PUSH2 0x79 JUMPI DUP1 PUSH4 0x6F9FB98A EQ PUSH2 0xA4 JUMPI JUMPDEST PUSH1 0x0 DUP1 REVERT JUMPDEST CALLVALUE DUP1 ISZERO PUSH2 0x50 JUMPI PUSH1 0x0 DUP1 REVERT JUMPDEST POP PUSH2 0x59 PUSH2 0xCF JUMP JUMPDEST PUSH1 0x40 MLOAD PUSH2 0x66 SWAP2 SWAP1 PUSH2 0x34F JUMP JUMPDEST PUSH1 0x40 MLOAD DUP1 SWAP2 SUB SWAP1 RETURN JUMPDEST PUSH2 0x77 PUSH2 0xF8 JUMP JUMPDEST STOP JUMPDEST CALLVALUE DUP1 ISZERO PUSH2 0x85 JUMPI PUSH1 0x0 DUP1 REVERT JUMPDEST POP PUSH2 0x8E PUSH2 0x218 JUMP JUMPDEST PUSH1 0x40 MLOAD PUSH2 0x9B SWAP2 SWAP1 PUSH2 0x38A JUMP JUMPDEST PUSH1 0x40 MLOAD DUP1 SWAP2 SUB SWAP1 RETURN JUMPDEST CALLVALUE DUP1 ISZERO PUSH2 0xB0 JUMPI PUSH1 0x0 DUP1 REVERT JUMPDEST POP PUSH2 0xB9 PUSH2 0x22C JUMP JUMPDEST PUSH1 0x40 MLOAD PUSH2 0xC6 SWAP2 SWAP1 PUSH2 0x38A JUMP JUMPDEST PUSH1 0x40 MLOAD DUP1 SWAP2 SUB SWAP1 RETURN JUMPDEST PUSH1 0x0 DUP1 PUSH1 0x0 SWAP1 SLOAD SWAP1 PUSH2 0x100 EXP SWAP1 DIV PUSH20 0xFFFFFFFFFFFFFFFFFFFFFFFFFFFFFFFFFFFFFFFF AND SWAP1 POP SWAP1 JUMP JUMPDEST PUSH2 0x100 PUSH2 0x218 JUMP JUMPDEST CALLVALUE LT ISZERO PUSH2 0x142 JUMPI PUSH1 0x40 MLOAD PUSH32 0x8C379A000000000000000000000000000000000000000000000000000000000 DUP2 MSTORE PUSH1 0x4 ADD PUSH2 0x139 SWAP1 PUSH2 0x36A JUMP JUMPDEST PUSH1 0x40 MLOAD DUP1 SWAP2 SUB SWAP1 REVERT JUMPDEST PUSH2 0x14A PUSH2 0x234 JUMP JUMPDEST ISZERO PUSH2 0x1DE JUMPI PUSH32 0x66B2CD474DA72A7F31C5FF448ADB9F09F7FE33365C0995613E6F9690B54081F1 CALLVALUE PUSH1 0x40 MLOAD PUSH2 0x17E SWAP2 SWAP1 PUSH2 0x38A JUMP JUMPDEST PUSH1 0x40 MLOAD DUP1 SWAP2 SUB SWAP1 LOG1 CALLER PUSH20 0xFFFFFFFFFFFFFFFFFFFFFFFFFFFFFFFFFFFFFFFF AND PUSH2 0x8FC PUSH1 0x2 CALLVALUE PUSH2 0x1AD SWAP2 SWAP1 PUSH2 0x3E7 JUMP JUMPDEST SWAP1 DUP2 ISZERO MUL SWAP1 PUSH1 0x40 MLOAD PUSH1 0x0 PUSH1 0x40 MLOAD DUP1 DUP4 SUB DUP2 DUP6 DUP9 DUP9 CALL SWAP4 POP POP POP POP ISZERO DUP1 ISZERO PUSH2 0x1D8 JUMPI RETURNDATASIZE PUSH1 0x0 DUP1 RETURNDATACOPY RETURNDATASIZE PUSH1 0x0 REVERT JUMPDEST POP PUSH2 0x216 JUMP JUMPDEST PUSH32 0xFCD230A1573290DB028735BE235DFC8D70560434138A162BA5CD6684F50358E2 CALLVALUE PUSH1 0x40 MLOAD PUSH2 0x20D SWAP2 SWAP1 PUSH2 0x38A JUMP JUMPDEST PUSH1 0x40 MLOAD DUP1 SWAP2 SUB SWAP1 LOG1 JUMPDEST JUMP JUMPDEST PUSH1 0x0 PUSH1 0xA SELFBALANCE PUSH2 0x227 SWAP2 SWAP1 PUSH2 0x3B6 JUMP JUMPDEST SWAP1 POP SWAP1 JUMP JUMPDEST PUSH1 0x0 SELFBALANCE SWAP1 POP SWAP1 JUMP JUMPDEST PUSH1 0x0 DUP1 CALLER CALLVALUE NUMBER TIMESTAMP GAS PUSH1 0x40 MLOAD PUSH1 0x20 ADD PUSH2 0x250 SWAP6 SWAP5 SWAP4 SWAP3 SWAP2 SWAP1 PUSH2 0x2F0 JUMP JUMPDEST PUSH1 0x40 MLOAD PUSH1 0x20 DUP2 DUP4 SUB SUB DUP2 MSTORE SWAP1 PUSH1 0x40 MSTORE DUP1 MLOAD SWAP1 PUSH1 0x20 ADD KECCAK256 SWAP1 POP PUSH1 0x0 PUSH1 0x2 DUP3 PUSH1 0x0 SHR PUSH2 0x27A SWAP2 SWAP1 PUSH2 0x4AB JUMP JUMPDEST EQ SWAP2 POP POP SWAP1 JUMP JUMPDEST PUSH2 0x28A DUP2 PUSH2 0x441 JUMP JUMPDEST DUP3 MSTORE POP POP JUMP JUMPDEST PUSH2 0x2A1 PUSH2 0x29C DUP3 PUSH2 0x441 JUMP JUMPDEST PUSH2 0x47D JUMP JUMPDEST DUP3 MSTORE POP POP JUMP JUMPDEST PUSH1 0x0 PUSH2 0x2B4 PUSH1 0x10 DUP4 PUSH2 0x3A5 JUMP JUMPDEST SWAP2 POP PUSH2 0x2BF DUP3 PUSH2 0x547 JUMP JUMPDEST PUSH1 0x20 DUP3 ADD SWAP1 POP SWAP2 SWAP1 POP JUMP JUMPDEST PUSH2 0x2D3 DUP2 PUSH2 0x473 JUMP JUMPDEST DUP3 MSTORE POP POP JUMP JUMPDEST PUSH2 0x2EA PUSH2 0x2E5 DUP3 PUSH2 0x473 JUMP JUMPDEST PUSH2 0x4A1 JUMP JUMPDEST DUP3 MSTORE POP POP JUMP JUMPDEST PUSH1 0x0 PUSH2 0x2FC DUP3 DUP9 PUSH2 0x290 JUMP JUMPDEST PUSH1 0x14 DUP3 ADD SWAP2 POP PUSH2 0x30C DUP3 DUP8 PUSH2 0x2D9 JUMP JUMPDEST PUSH1 0x20 DUP3 ADD SWAP2 POP PUSH2 0x31C DUP3 DUP7 PUSH2 0x2D9 JUMP JUMPDEST PUSH1 0x20 DUP3 ADD SWAP2 POP PUSH2 0x32C DUP3 DUP6 PUSH2 0x2D9 JUMP JUMPDEST PUSH1 0x20 DUP3 ADD SWAP2 POP PUSH2 0x33C DUP3 DUP5 PUSH2 0x2D9 JUMP JUMPDEST PUSH1 0x20 DUP3 ADD SWAP2 POP DUP2 SWAP1 POP SWAP7 SWAP6 POP POP POP POP POP POP JUMP JUMPDEST PUSH1 0x0 PUSH1 0x20 DUP3 ADD SWAP1 POP PUSH2 0x364 PUSH1 0x0 DUP4 ADD DUP5 PUSH2 0x281 JUMP JUMPDEST SWAP3 SWAP2 POP POP JUMP JUMPDEST PUSH1 0x0 PUSH1 0x20 DUP3 ADD SWAP1 POP DUP2 DUP2 SUB PUSH1 0x0 DUP4 ADD MSTORE PUSH2 0x383 DUP2 PUSH2 0x2A7 JUMP JUMPDEST SWAP1 POP SWAP2 SWAP1 POP JUMP JUMPDEST PUSH1 0x0 PUSH1 0x20 DUP3 ADD SWAP1 POP PUSH2 0x39F PUSH1 0x0 DUP4 ADD DUP5 PUSH2 0x2CA JUMP JUMPDEST SWAP3 SWAP2 POP POP JUMP JUMPDEST PUSH1 0x0 DUP3 DUP3 MSTORE PUSH1 0x20 DUP3 ADD SWAP1 POP SWAP3 SWAP2 POP POP JUMP JUMPDEST PUSH1 0x0 PUSH2 0x3C1 DUP3 PUSH2 0x473 JUMP JUMPDEST SWAP2 POP PUSH2 0x3CC DUP4 PUSH2 0x473 JUMP JUMPDEST SWAP3 POP DUP3 PUSH2 0x3DC JUMPI PUSH2 0x3DB PUSH2 0x50B JUMP JUMPDEST JUMPDEST DUP3 DUP3 DIV SWAP1 POP SWAP3 SWAP2 POP POP JUMP JUMPDEST PUSH1 0x0 PUSH2 0x3F2 DUP3 PUSH2 0x473 JUMP JUMPDEST SWAP2 POP PUSH2 0x3FD DUP4 PUSH2 0x473 JUMP JUMPDEST SWAP3 POP DUP2 PUSH32 0xFFFFFFFFFFFFFFFFFFFFFFFFFFFFFFFFFFFFFFFFFFFFFFFFFFFFFFFFFFFFFFFF DIV DUP4 GT DUP3 ISZERO ISZERO AND ISZERO PUSH2 0x436 JUMPI PUSH2 0x435 PUSH2 0x4DC JUMP JUMPDEST JUMPDEST DUP3 DUP3 MUL SWAP1 POP SWAP3 SWAP2 POP POP JUMP JUMPDEST PUSH1 0x0 PUSH2 0x44C DUP3 PUSH2 0x453 JUMP JUMPDEST SWAP1 POP SWAP2 SWAP1 POP JUMP JUMPDEST PUSH1 0x0 PUSH20 0xFFFFFFFFFFFFFFFFFFFFFFFFFFFFFFFFFFFFFFFF DUP3 AND SWAP1 POP SWAP2 SWAP1 POP JUMP JUMPDEST PUSH1 0x0 DUP2 SWAP1 POP SWAP2 SWAP1 POP JUMP JUMPDEST PUSH1 0x0 PUSH2 0x488 DUP3 PUSH2 0x48F JUMP JUMPDEST SWAP1 POP SWAP2 SWAP1 POP JUMP JUMPDEST PUSH1 0x0 PUSH2 0x49A DUP3 PUSH2 0x53A JUMP JUMPDEST SWAP1 POP SWAP2 SWAP1 POP JUMP JUMPDEST PUSH1 0x0 DUP2 SWAP1 POP SWAP2 SWAP1 POP JUMP JUMPDEST PUSH1 0x0 PUSH2 0x4B6 DUP3 PUSH2 0x473 JUMP JUMPDEST SWAP2 POP PUSH2 0x4C1 DUP4 PUSH2 0x473 JUMP JUMPDEST SWAP3 POP DUP3 PUSH2 0x4D1 JUMPI PUSH2 0x4D0 PUSH2 0x50B JUMP JUMPDEST JUMPDEST DUP3 DUP3 MOD SWAP1 POP SWAP3 SWAP2 POP POP JUMP JUMPDEST PUSH32 0x4E487B7100000000000000000000000000000000000000000000000000000000 PUSH1 0x0 MSTORE PUSH1 0x11 PUSH1 0x4 MSTORE PUSH1 0x24 PUSH1 0x0 REVERT JUMPDEST PUSH32 0x4E487B7100000000000000000000000000000000000000000000000000000000 PUSH1 0x0 MSTORE PUSH1 0x12 PUSH1 0x4 MSTORE PUSH1 0x24 PUSH1 0x0 REVERT JUMPDEST PUSH1 0x0 DUP2 PUSH1 0x60 SHL SWAP1 POP SWAP2 SWAP1 POP JUMP JUMPDEST PUSH32 0x6265742073697A6520746F6F2062696700000000000000000000000000000000 PUSH1 0x0 DUP3 ADD MSTORE POP JUMP INVALID LOG2 PUSH5 0x6970667358 0x22 SLT KECCAK256 CALLER PUSH5 0x124A5E1B7A CALLCODE LOG0 0x49 0x24 PUSH22 0xC67852F5A0538850DEDF21858A6F58B1A4DECB266473 PUSH16 0x6C634300080600330000000000000000 "
		},
		"gasEstimates": {
			"creation": {
				"codeDepositCost": "289200",
				"executionCost": "24573",
				"totalCost": "313773"
			},
			"external": {
				"bet()": "infinite",
				"getContractBalance()": "383",
				"getOwnerAddress()": "2500",
				"maxBet()": "infinite"
			},
			"internal": {
				"generateRandomBit()": "infinite"
			}
		},
		"methodIdentifiers": {
			"bet()": "11610c25",
			"getContractBalance()": "6f9fb98a",
			"getOwnerAddress()": "0c4f65bd",
			"maxBet()": "2e5b2168"
		}
	},
	"abi": [
		{
			"inputs": [],
			"stateMutability": "payable",
			"type": "constructor"
		},
		{
			"anonymous": false,
			"inputs": [
				{
					"indexed": false,
					"internalType": "uint256",
					"name": "amount",
					"type": "uint256"
				}
			],
			"name": "LogLose",
			"type": "event"
		},
		{
			"anonymous": false,
			"inputs": [
				{
					"indexed": false,
					"internalType": "uint256",
					"name": "amount",
					"type": "uint256"
				}
			],
			"name": "LogWin",
			"type": "event"
		},
		{
			"inputs": [],
			"name": "bet",
			"outputs": [],
			"stateMutability": "payable",
			"type": "function"
		},
		{
			"inputs": [],
			"name": "getContractBalance",
			"outputs": [
				{
					"internalType": "uint256",
					"name": "",
					"type": "uint256"
				}
			],
			"stateMutability": "view",
			"type": "function"
		},
		{
			"inputs": [],
			"name": "getOwnerAddress",
			"outputs": [
				{
					"internalType": "address",
					"name": "",
					"type": "address"
				}
			],
			"stateMutability": "view",
			"type": "function"
		},
		{
			"inputs": [],
			"name": "maxBet",
			"outputs": [
				{
					"internalType": "uint256",
					"name": "",
					"type": "uint256"
				}
			],
			"stateMutability": "view",
			"type": "function"
		}
	]
}