{
	"data": {
		"bytecode": {
			"linkReferences": {},
			"object": "608060405234801561001057600080fd5b50610278806100206000396000f3fe608060405234801561001057600080fd5b506004361061002b5760003560e01c8063bae98e5a14610030575b600080fd5b61004a600480360381019061004591906100df565b610060565b604051610057919061015e565b60405180910390f35b60008160ff16600183610073919061018a565b60ff16116100b6576040517f08c379a00000000000000000000000000000000000000000000000000000000081526004016100ad9061013e565b60405180910390fd5b6001826100c3919061018a565b9050919050565b6000813590506100d98161022b565b92915050565b6000602082840312156100f5576100f46101fd565b5b6000610103848285016100ca565b91505092915050565b6000610119601383610179565b915061012482610202565b602082019050919050565b610138816101c1565b82525050565b600060208201905081810360008301526101578161010c565b9050919050565b6000602082019050610173600083018461012f565b92915050565b600082825260208201905092915050565b6000610195826101c1565b91506101a0836101c1565b92508260ff038211156101b6576101b56101ce565b5b828201905092915050565b600060ff82169050919050565b7f4e487b7100000000000000000000000000000000000000000000000000000000600052601160045260246000fd5b600080fd5b7f736f7272792c206120697320746f6f2062696700000000000000000000000000600082015250565b610234816101c1565b811461023f57600080fd5b5056fea2646970667358221220c7c822280987214161a8898af685d96db90b9c445b09483975ddeaec45f3179264736f6c63430008060033",
			"opcodes": "PUSH1 0x80 PUSH1 0x40 MSTORE CALLVALUE DUP1 ISZERO PUSH2 0x10 JUMPI PUSH1 0x0 DUP1 REVERT JUMPDEST POP PUSH2 0x278 DUP1 PUSH2 0x20 PUSH1 0x0 CODECOPY PUSH1 0x0 RETURN INVALID PUSH1 0x80 PUSH1 0x40 MSTORE CALLVALUE DUP1 ISZERO PUSH2 0x10 JUMPI PUSH1 0x0 DUP1 REVERT JUMPDEST POP PUSH1 0x4 CALLDATASIZE LT PUSH2 0x2B JUMPI PUSH1 0x0 CALLDATALOAD PUSH1 0xE0 SHR DUP1 PUSH4 0xBAE98E5A EQ PUSH2 0x30 JUMPI JUMPDEST PUSH1 0x0 DUP1 REVERT JUMPDEST PUSH2 0x4A PUSH1 0x4 DUP1 CALLDATASIZE SUB DUP2 ADD SWAP1 PUSH2 0x45 SWAP2 SWAP1 PUSH2 0xDF JUMP JUMPDEST PUSH2 0x60 JUMP JUMPDEST PUSH1 0x40 MLOAD PUSH2 0x57 SWAP2 SWAP1 PUSH2 0x15E JUMP JUMPDEST PUSH1 0x40 MLOAD DUP1 SWAP2 SUB SWAP1 RETURN JUMPDEST PUSH1 0x0 DUP2 PUSH1 0xFF AND PUSH1 0x1 DUP4 PUSH2 0x73 SWAP2 SWAP1 PUSH2 0x18A JUMP JUMPDEST PUSH1 0xFF AND GT PUSH2 0xB6 JUMPI PUSH1 0x40 MLOAD PUSH32 0x8C379A000000000000000000000000000000000000000000000000000000000 DUP2 MSTORE PUSH1 0x4 ADD PUSH2 0xAD SWAP1 PUSH2 0x13E JUMP JUMPDEST PUSH1 0x40 MLOAD DUP1 SWAP2 SUB SWAP1 REVERT JUMPDEST PUSH1 0x1 DUP3 PUSH2 0xC3 SWAP2 SWAP1 PUSH2 0x18A JUMP JUMPDEST SWAP1 POP SWAP2 SWAP1 POP JUMP JUMPDEST PUSH1 0x0 DUP2 CALLDATALOAD SWAP1 POP PUSH2 0xD9 DUP2 PUSH2 0x22B JUMP JUMPDEST SWAP3 SWAP2 POP POP JUMP JUMPDEST PUSH1 0x0 PUSH1 0x20 DUP3 DUP5 SUB SLT ISZERO PUSH2 0xF5 JUMPI PUSH2 0xF4 PUSH2 0x1FD JUMP JUMPDEST JUMPDEST PUSH1 0x0 PUSH2 0x103 DUP5 DUP3 DUP6 ADD PUSH2 0xCA JUMP JUMPDEST SWAP2 POP POP SWAP3 SWAP2 POP POP JUMP JUMPDEST PUSH1 0x0 PUSH2 0x119 PUSH1 0x13 DUP4 PUSH2 0x179 JUMP JUMPDEST SWAP2 POP PUSH2 0x124 DUP3 PUSH2 0x202 JUMP JUMPDEST PUSH1 0x20 DUP3 ADD SWAP1 POP SWAP2 SWAP1 POP JUMP JUMPDEST PUSH2 0x138 DUP2 PUSH2 0x1C1 JUMP JUMPDEST DUP3 MSTORE POP POP JUMP JUMPDEST PUSH1 0x0 PUSH1 0x20 DUP3 ADD SWAP1 POP DUP2 DUP2 SUB PUSH1 0x0 DUP4 ADD MSTORE PUSH2 0x157 DUP2 PUSH2 0x10C JUMP JUMPDEST SWAP1 POP SWAP2 SWAP1 POP JUMP JUMPDEST PUSH1 0x0 PUSH1 0x20 DUP3 ADD SWAP1 POP PUSH2 0x173 PUSH1 0x0 DUP4 ADD DUP5 PUSH2 0x12F JUMP JUMPDEST SWAP3 SWAP2 POP POP JUMP JUMPDEST PUSH1 0x0 DUP3 DUP3 MSTORE PUSH1 0x20 DUP3 ADD SWAP1 POP SWAP3 SWAP2 POP POP JUMP JUMPDEST PUSH1 0x0 PUSH2 0x195 DUP3 PUSH2 0x1C1 JUMP JUMPDEST SWAP2 POP PUSH2 0x1A0 DUP4 PUSH2 0x1C1 JUMP JUMPDEST SWAP3 POP DUP3 PUSH1 0xFF SUB DUP3 GT ISZERO PUSH2 0x1B6 JUMPI PUSH2 0x1B5 PUSH2 0x1CE JUMP JUMPDEST JUMPDEST DUP3 DUP3 ADD SWAP1 POP SWAP3 SWAP2 POP POP JUMP JUMPDEST PUSH1 0x0 PUSH1 0xFF DUP3 AND SWAP1 POP SWAP2 SWAP1 POP JUMP JUMPDEST PUSH32 0x4E487B7100000000000000000000000000000000000000000000000000000000 PUSH1 0x0 MSTORE PUSH1 0x11 PUSH1 0x4 MSTORE PUSH1 0x24 PUSH1 0x0 REVERT JUMPDEST PUSH1 0x0 DUP1 REVERT JUMPDEST PUSH32 0x736F7272792C206120697320746F6F2062696700000000000000000000000000 PUSH1 0x0 DUP3 ADD MSTORE POP JUMP JUMPDEST PUSH2 0x234 DUP2 PUSH2 0x1C1 JUMP JUMPDEST DUP2 EQ PUSH2 0x23F JUMPI PUSH1 0x0 DUP1 REVERT JUMPDEST POP JUMP INVALID LOG2 PUSH5 0x6970667358 0x22 SLT KECCAK256 0xC7 0xC8 0x22 0x28 MULMOD DUP8 0x21 COINBASE PUSH2 0xA889 DUP11 0xF6 DUP6 0xD9 PUSH14 0xB90B9C445B09483975DDEAEC45F3 OR SWAP3 PUSH5 0x736F6C6343 STOP ADDMOD MOD STOP CALLER "
		},
		"gasEstimates": {
			"creation": {
				"codeDepositCost": "126400",
				"executionCost": "171",
				"totalCost": "126571"
			},
			"external": {
				"addOne(uint8)": "infinite"
			}
		},
		"methodIdentifiers": {
			"addOne(uint8)": "bae98e5a"
		}
	},
	"abi": [
		{
			"inputs": [
				{
					"internalType": "uint8",
					"name": "a",
					"type": "uint8"
				}
			],
			"name": "addOne",
			"outputs": [
				{
					"internalType": "uint8",
					"name": "",
					"type": "uint8"
				}
			],
			"stateMutability": "pure",
			"type": "function"
		}
	]
}